:0400000002001132B7
:03000B0002289A2E
:06006A0075790002000E92
:03000E0002284D78
:2000700075A882758801758CC0758A00D28C227F077E02EE14FDFE70FAEF14FEFF70F222A2
:20009000AE82AF838E048F051EBEFF011FEC4D600DC007C00612007FD006D00780E622AF25
:2000B000828508F005F07401800225E0D5F0FBFE5F60047F0180027F008F8222AF8275F075
:2000D0000AEF84FE75F00AA4D39FF4FFBF050040010E8E8222E582FF30E704C3E49FFF8F83
:2000F0008222AD82AE83AFF01229D1FCA908AA09AB0A89828A838BF01229D1F8C39C5014D2
:200110008D828E838FF0E812294089828A838BF0EC02294022AF82C3EF95085002AF08C375
:20013000EF95095002AF098F8222AF827E00EE75F008A4FCADF07B00EC2401F9ED3400FAFE
:20015000EB29F582E43AF583EFF00BBB080040E80EBE080040D8228582228583237D06EDC7
:2001700020E750ED04FC7B00C2D575F008EB30E704B2D5F404A430D50AF42401C5F0F4347E
:2001900000C5F0F9AAF02401F8EA3400FFED28F8E43FFFE92401F9EA3400FAEC29F582E40F
:2001B0003AF583E0FE88828F83F00BC3EB6480948840B5C3ED64809484503C74042DFF7E8B
:2001D00000C2D575F008EE30E704B2D5F404A430D50AF42401C5F0F43400C5F02401FB7491
:2001F0000035F0FCEF2BF582E43CF583E4F00EC3EE6480948840CA852282852383C00512DD
:200210000090D0051DC3ED6480947D400302016F22AF828FF005F07401800225E0D5F0FB6F
:20023000FFF4FEE50A6032E50975F008A4FCADF02401FAED3400FBE508F92AFAE43BFBEC59
:200250002401FCED3400FDE92CF582E43DF583E042078A828B83EFF022E50975F008A4FDEA
:20027000AFF02401FBEF3400FCE508FA2BFBE43CFCED2401FDEF3400FFEA2DF582E43FF590
:2002900083E052068B828C83EEF022AF82AE08EF75F008A4245FFD742A35F0FF7C00EC7571
:2002B000F008A42401FA740035F0FBEE2AFAE43BFBEC2DF582E43FF583E493F98A828B83FE
:2002D000F00CBC080040D722AF82BF8000503DE5246007747FC39FFE80028F06EE902AC7CF
:2002F00093FEC4035407FD530507EE0303543FFC530407530603EF24C050057407C39EFEA0
:200310008C088E0985250A8D8202022122AF82E528C39FFEE529C39526F52DE52AC39527BE
:20033000F52E8E82C007C0061200E5AB82852D82C0031200E5AA82852E82C0021200E5853C
:200350008209D002D0038A088B8212012585822CD006D007EF75F00AA4FFE52675F00AA487
:20037000FAE52775F00AA4F9C2D575F00AEE30E704B2D5F404A430D50AF42401C5F0F43424
:2003900000C5F0F58285F083E52CF83395E0FB88088B09C007C003C002C001C000122A232D
:2003B000AC82AD83D000D001D002D003D0078C06C2D575F00AE52D30E704B2D5F404A4309A
:2003D000D50AF42401C5F0F43400C5F0F58285F08388088B09C007C006C003C002C001C05D
:2003F00000122A23AC82AD83D000D001D002D003D006D0078C2DC2D575F00AE52E30E70450
:20041000B2D5F404A430D50AF42401C5F0F43400C5F0F58285F08388088B09C007C006C00F
:2004300002C001122A23AC82D001D002D006D0078C2E7D00C3ED6480852CF063F08095F048
:2004500050628F82C007C006C005C002C0011200CCAC82D001D0028A82C004C002C00112E0
:2004700000CCAB82D001D0028982C003C002C0011200CC858209D001D002D003D0048B08B4
:20049000852B0A8C82C002C001120221D001D002D005D006D007EE2FFFE52D2AFAE52E2919
:2004B000F90D8090852908852A09852B0A852882020221858236753800750831750900750F
:2004D0000A4090003675F0401200F2750832750900750A4090002F75F0401200F27508334F
:2004F000750900750A4090003075F0401200F2AE368E05C3E5319D40138DF005F07401809F
:200510000225E0D5F0FBFC42380D80E7E5357005E538F4F538E53470030205CAE535604D29
:20053000AE308E05C3E5339D500122852F37AB37C3E5329B4034EB75F008A4F9AAF02401E5
:20055000F8EA3400FFED28F8E43FFFE92401F9EA3400FAED29F582E43AF583E0FAE53842CC
:200570000288828F83EAF00B80C60D80B7AE308E07C3E5339F500122852F37AD37C3E532D5
:200590009D4034ED75F008A4FAABF02401F8EB3400F9EF28F8E439F9EA2401FAEB3400FB2A
:2005B000EF2AF582E43BF583E0FBE538520388828983EBF00D80C60F80B7E5357003020698
:2005D000A4E52F75F008A4FDAFF02401FAEF3400FBE530F92AFAE43BFBED2401FDEF3400EB
:2005F000FFE92DF582E43FF583E0FFE53842078A828B83EFF0E53275F008A4FDAFF024019D
:20061000FAEF3400FBE530F92AFAE43BFBED2401FDEF3400FFE92DF582E43FF583E0FFE549
:200630003842078A828B83EFF0E52F75F008A4FDAFF02401FAEF3400FBE533F92AFAE43BDE
:20065000FBED2401FDEF3400FFE92DF582E43FF583E0FFE53842078A828B83EFF0E532756C
:20067000F008A4FDAFF02401FAEF3400FBE533F92AFAE43BFBED2401FDEF3400FFE92DF56A
:2006900082E43FF583E0FFE53842078A828B83EFF0020774E52F75F008A4FDAFF02401FA92
:2006B000EF3400FBE530F92AFAE43BFBED2401FDEF3400FFE92DF582E43FF583E0FFE5386B
:2006D00052078A828B83EFF0E53275F008A4FDAFF02401FAEF3400FBE530F92AFAE43BFB6B
:2006F000ED2401FDEF3400FFE92DF582E43FF583E0FFE53852078A828B83EFF0E52F75F0CA
:2007100008A4FDAFF02401FAEF3400FBE533F92AFAE43BFBED2401FDEF3400FFE92DF58237
:20073000E43FF583E0FFE53852078A828B83EFF0E53275F008A4FDAFF02401FAEF3400FBBF
:20075000E533F92AFAE43BFBED2401FDEF3400FFE92DF582E43FF583E0FFE53852078A8280
:200770008B83EFF08536F005F07401800225E0D5F0FBFF8531F005F07401800225E0D5F0C5
:20079000FBFD4FF538E5357005E538F4F538E5357003020850853037C3E5339537404BAE55
:2007B0002F8E07C3E5329F4036EF75F008A4FBADF02401F9ED3400FAE53729F9E43AFAEB64
:2007D0002401FBED3400FDE5372BF582E43DF583E0FDE538420589828A83EDF00F80C4E506
:2007F00033C395302537F53780AE852F37C3E5329537500122AE30E53775F008A4FDAFF0CD
:200810008E03C3E5339B402DED2401F9EF3400FAEB29F9E43AFAED2401F8EF3400FCEB28CB
:20083000F582E43CF583E0FCE538420489828A83ECF00B80CDE532C3952F2537F53780ADBB
:20085000853037C3E5339537404BAE2F8E07C3E5329F4036EF75F008A4FDAEF02401FBEE60
:200870003400FCE5372BFBE43CFCED2401FDEE3400FEE5372DF582E43EF583E0FEE5385204
:20089000068B828C83EEF00F80C4E533C395302537F53780AE852F37C3E53295374049AFD6
:2008B00030E53775F008A4FDAEF0C3E5339F402DED2401FBEE3400FCEF2BFBE43CFCED24DC
:2008D00001F9EE3400FAEF29F582E43AF583E0FAE53852028B828C83EAF00F80CDE532C356
:2008F000952F2537F53780B022AF8275083D750900750A4090003A75F040C0071200F2D018
:2009100007E53E6029AE3AC3E53D9E5001228539268E27853B28853C298E2A853F2B8F8213
:20093000C007C00612031DD006D0070E80D9853926853A27853B28853C29853A2A853F2B60
:200950008F82C00712031DD007853926853D27853B28853C29853D2A853F2B8F82C0071242
:20097000031D853C26853A27853B28853C29853D2A853F2B853B8212031DD0078539268519
:200990003A278F28853929853D2A853F2B8F8202031DAF827E008E088F82C007C006120045
:2009B000AF85820AD0068541088E09854082C006120221D006D0070EBE080040D922E582C7
:2009D000FF33B39200C3EF64809488E433FEA200E433FDEE5D60137407C39FF5417540008D
:2009F000854282C0071209A2D007C3EF64809488B39200C3EF64809490E433FEA200E433C4
:200A1000FDEE5D6012EF24F8F540754100854282C0071209A2D007C3EF64809490B3920073
:200A3000C3EF64809498E433FEA200E433FDEE5D600EEF24F0F5417540078542820209A275
:200A500022AE82AF837D177C008C03EB2DFB20E724C3EB64809498501CEC902A9F93F542EC
:200A70008B82C007C006C005C0041209CED004D005D006D0070CBC280040CE8E828F83C024
:200A900007C006C005120090D005D006D0071DC374588DF063F08095F040AC22E582FF2477
:200AB000FC500122EF2F2F900ABB73020B79020AC7020B05020B3F7F00EF75F008A4240147
:200AD000FD740035F0FE74072DF582E43EF583E4F07406C39F2439F582E43400F58374FF32
:200AF000F0854382854483C007120090D0070FBF070040C5227F007407C39F2439F582E410
:200B10003400F583E4F07406C39F75F008A42401F582740035F0F58374FFF0854382854435
:200B300083C007120090D0070FBF070040C9227F007407C39F75F008A42401F58274003530
:200B5000F0F583E4F0EF04FE2401F582E43400F58374FFF0854382854483C006120090D0FB
:200B7000068E07BF070040C9227F00EF2401F582E43400F583E4F0EF04FE75F008A4240144
:200B9000FC740035F0FD74072CF582E43DF58374FFF0854382854483C006120090D0068E37
:200BB00007BF070040C522E582FF24FC500122EF2F2F900BC673020CB7020BD2020C1C0247
:200BD0000C677F008F267527007528008F29752A07752B00758200C00712031DD007EF046D
:200BF000FE7526077527008E28752907752A07752B018E82C00612031D8545828546831253
:200C10000090D0068E07BF070040B9227E007526077527008E28752907752A07752B008EFD
:200C300082C00612031DD0067406C39EFD8D267527007528078D29752A07752B017582078E
:200C5000C00612031D854582854683120090D0060EBE070040B8227E007407C39EFD8D2683
:200C70007527007528078D29752A07752B00758207C00612031DD0067406C39EFD752600E9
:200C90007527008D28752900752A07752B018D82C00612031D854582854683120090D006F5
:200CB0000EBE070040B3227F007407C39FFE7526007527008E28752900752A07752B008E83
:200CD00082C00712031DD007EF04FE8E267527007528008E29752A07752B01758200C00619
:200CF00012031D854582854683120090D0068E07BF070040B422E582FF24FC500122EF2F18
:200D10002F900D1573020E27020D21020D77020DCD7F007407C39FF53C8F39753A00753BF2
:200D300007753D07753E01753F01758200C0071208F9854782854883120090D007BF0700CC
:200D5000501E753903753A00753B008F3C753D07753E01753F00758203C0071208F9D0076E
:200D70000FBF080040AD227F007407C39FF582753900753A008F3B753C07753D07753E015F
:200D9000753F01C0071208F9854782854883120090D007BF0700501E753904753A008F3B3E
:200DB000753C07753D07753E01753F00758203C0071208F9D0070FBF080040AD227F0074C7
:200DD00007C39FF53C8F39753A00753B07753D07753E01753F01758200C0071208F985477C
:200DF00082854883120090D007BF070050227407C39FF53C753904753A00753B07753D0781
:200E1000753E01753F00758204C0071208F9D0070FBF080040A9227F007407C39FF5827585
:200E30003900753A008F3B753C07753D07753E01753F01C0071208F985478285488312008C
:200E500090D007BF070050227407C39FF53B753903753A00753C00753D07753E01753F00A4
:200E7000758204C0071208F9D0070FBF080040A922E58275F008A4FEAFF07D007C00EE24B5
:200E900001FAEF3400FBEC2AFAE43BFBEE2401F8EF3400F9EC28F582E439F583E0C313F909
:200EB0008A828B83F00CBC080040D3854982854A83C007C006C005120090D005D006D0071D
:200ED0000DBD080040B622AF82755000EF75F008A4245FF551742A35F0F552754D0074F920
:200EF000254D401DE54D04FB753900753A008B3B753C07753D07753E01753F018B821208BE
:200F1000F9753900753A0085503B753C07753D07753E01753F008550821208F9754F00E56F
:200F30004D04F5507A008AF005F07401800225E0D5F0FBF9424F0AC3E54D9A50E9754E0047
:200F5000E54E75F008A4F8A9F02401FCE93400FE74032CFCE43EFEE82401FAE93400FB741E
:200F7000032AF553E43BF554E54E2551FDE43552FF8D828F83E493FBE54F52038553828579
:200F90005483E0FA42038C828E83EBF0E82401FCE93400FE74042CFCE43EFEE82401F8E97F
:200FB0003400F9740428F8E439F98D828F83E493FDE54F520588828983E0F842058C828E55
:200FD00083EDF0054E74F8254E4003020F50854B82854C83120090054D74F8254D4003020E
:200FF0000EEE227F00EF75F008A4FDAEF07C00ED2401FAEE3400FBEC2AFAE43BFBED2401C8
:20101000F8EE3400F9EC28F582E439F583E025E0F98A828B83F00CBC080040D30FBF0800EC
:2010300040C32275820012013A75080075820112029B90EA6012009075080075820212020D
:201050009B90EA6012009075080075820312029B90EA6012009075080075820412029B9010
:20107000EA6012009090EA6012009075820012013A907530120A5175080775820012029BE8
:2010900090EA6012009090177012016790EA600200907F81EF24FEF582752400752501C04B
:2010B000071202D8901F40120090D007EF14FE7524007525008E82C0061202D8D0068E0764
:2010D000EF70D1901F401200907F007524017525018F82C0071202D8901F40120090D0075F
:2010F000EF24F8F582752401752500C0071202D8D0070FBF880040D3901F401200907F81A6
:20111000EF24FEF582752400752501C0071202D8901F40120090D007DFE6901F4012009092
:201130007F00EF24F8F582752401752500C0071202D8901F40120090D0070FBF800040E2DF
:2011500090EA600200907F008F39753A00753B078F3C753D07753E01753F01758200C007BB
:201170001208F9904E20120090D007C3EF64809487501D8F39753A00753B078F3C753D0705
:20119000753E01753F00758200C0071208F9D0070FC3EF6480948840AF7F078F39753A0082
:2011B000753B078F3C753D07753E01753F01758200C0071208F9904E20120090D007C374FC
:2011D000808FF063F08095F0501D8F39753A00753B078F3C753D07753E01753F007582002A
:2011F000C0071208F9D0071FEF30E7AF7F008F39753A00753B078F3C753D07753E01753FC1
:2012100001758200C0071208F9904E20120090D007C3EF64809487501D8F39753A00753B30
:20123000078F3C753D07753E01753F00758200C0071208F9D0070FC3EF6480948840AF2231
:201250007F07EF24F92455F8A6070FC3EF6480948F40EF7F007E00EE2455F98705C3ED64DA
:201270008094885020ED20E71C8D268E277528078D298E2A752B01758200C007C00612038E
:201290001DD006D0070EC3EE6480948840C97E00EE2455F9E7FDFB3395E0FC0BBB00010C78
:2012B000C3EB9408EC64809480E433FBED33B39201E433FC5B601D0D8D268E277528078DE7
:2012D000298E2A752B00758200C007C00612031DD006D0070EC3EE6480948840B37E00EEFC
:2012F0002455F98705C374808DF063F08095F05003ED14F70EC3EE6480948840E2903A98C6
:20131000C007120090D0070FC374908FF063F08095F040030212657F00EF2455F97401C3FC
:201330009FF70FC3EF6480948840EE7F007E00EE2455F98705C3ED64809488E433FCED334C
:20135000B39201E433FB5C601C8D268E277528078D298E2A752B01758200C007C006120399
:201370001DD006D0070EC3EE6480948840C17E00EE2455F9E7FDFB3395E0FC1BBBFF011C80
:20139000C3EB9407EC64809480E433FBC374808DF063F08095F0E433FC5B601D1D8D268E29
:2013B000277528078D298E2A752B00758200C007C00612031DD006D0070EC3EE6480948822
:2013D00040AE7E00EE2455F98705C3ED648094875003ED04F70EC3EE6480948840E6903A0C
:2013F00098C007120090D0070FC374908FF063F08095F0400302133D227F07EF24F9245D8E
:20141000F8A6070FC3EF6480948B40EF7F088F061FEE70030214C07E00EE245DF98705C37D
:20143000ED6480948850227407C39EFC8D398E3A8C3B8D3C8C3D753E00753F018E82C0073F
:20145000C0061208F9D006D007EE245DF98705C3ED6480948750230D7407C39EFC8D398EA7
:201470003A8C3B8D3C8C3D753E00753F008E82C007C0061208F9D006D0070EC3EE648094CE
:201490008440967E00EE245DF98705C374838DF063F08095F05003ED14F70EC3EE6480945F
:2014B0008440E2903A98C007120090D00702141E7F00EF245DF97405C39FF70FC3EF648041
:2014D000948440EE7F038F061FEE70030215787E01EE245DF98705C3ED648094845022748B
:2014F00007C39EFC8D398E3A8C3B8D3C8C3D753E00753F018E82C007C0061208F9D006D0D3
:2015100007EE245DF98705C3ED6480948350230D7407C39EFC8D398E3A8C3B8D3C8C3D7561
:201530003E00753F008E82C007C0061208F9D006D0070EC3EE6480948440967E00EE245DCE
:20155000F98705C374808DF063F08095F05003ED14F70EC3EE6480948440E2903A98C00719
:20157000120090D0070214D67F01EF245DF97404C39FF70FC3EF6480948440EE7F038F063A
:201590001FEE700302162B7E01EE245DF9E7FD20E7227407C39EFC8D398E3A8C3B8D3C8C02
:2015B0003D753E00753F018E82C007C0061208F9D006D007EE245DF98705C374808DF0638E
:2015D000F08095F050231D7407C39EFC8D398E3A8C3B8D3C8C3D753E00753F008E82C00779
:2015F000C0061208F9D006D0070EC3EE6480948440977E01EE245DF98705C3ED64809483A5
:201610005003ED04F70EC3EE6480948440E6903A98C007120090D00702158E7F00EF245D68
:20163000F9EF04FEF78E07C3EF6480948440EE7F038F061FEE70030216DE7E01EE245DF9D4
:201650008705C374838DF063F08095F050227407C39EFC8D398E3A8C3B8D3C8C3D753E007B
:20167000753F018E82C007C0061208F9D006D007EE245DF98705C374838DF063F08095F0C5
:2016900050231D7407C39EFC8D398E3A8C3B8D3C8C3D753E00753F008E82C007C0061208CD
:2016B000F9D006D0070EC3EE64809484408E7E00EE245DF9E7FD04F70EC3EE64809484402B
:2016D000EF903A98C007120090D0070216417F03EF24FE245DF8A6070FC3EF648094864058
:2016F000EF7F038F061FEE70030217807E01EE245DF987057407C39EFC8D398E3A8C3B8D8E
:201710003C8C3D753E00753F018E82C007C006C004C0011208F9D001D004D00687050D8D76
:20173000398E3A8C3B8D3C8C3D753E00753F008E82C0061208F9D006D0070EC3EE6480940B
:201750008440AB7E00EE245DF98705C374838DF063F08095F05003ED14F70EC3EE64809487
:201770008440E2903A98C007120090D0070216F37F00EF245DF97405C39FF70FC3EF6480A7
:20179000948440EE7F038F061FEE70030218387E01EE245DF98705C3ED6480948450227405
:2017B00007C39EFC8D398E3A8C3B8D3C8C3D753E00753F018E82C007C0061208F9D006D010
:2017D00007EE245DF98705C3ED6480948350230D7407C39EFC8D398E3A8C3B8D3C8C3D759F
:2017F0003E00753F008E82C007C0061208F9D006D0070EC3EE6480948440967E00EE245D0C
:20181000F98705C374808DF063F08095F05003ED14F70EC3EE6480948440E2903A98C00756
:20183000120090D0070217967F00EF245DF97403C39FF70FC3EF6480948440EE755D027F7A
:20185000038F061FEE70030218FF7E00EE245DF9E7FD20E7227407C39EFC8D398E3A8C3B27
:201870008D3C8C3D753E00753F018E82C007C0061208F9D006D007EE245DF9E7FD20E7238B
:201890000D7407C39EFC8D398E3A8C3B8D3C8C3D753E00753F008E82C007C0061208F9D085
:2018B00006D0070EC3EE6480948340A07E00EFFC3395E0FD7405C39CFCE49DFDEEFA339591
:2018D000E0FBC3EA9CEB64808DF063F08095F05008EE245DF9E7FD14F70EC3EE64809484C6
:2018F00040CC903A98C007120090D0070218517F00EF245DF9EF24FEF70FC3EF6480948412
:2019100040EF7F0A8F061FEE7001227E00EE245DF9E7FD20E7227407C39EFC8D398E3A8CE5
:201930003B8D3C8C3D753E00753F018E82C007C0061208F9D006D007EE245DF9E7FD20E7B2
:20195000231D7407C39EFC8D398E3A8C3B8D3C8C3D753E00753F008E82C007C0061208F961
:20197000D006D0070EC3EE6480948440A07E00EE245DF98705C3ED648094875003ED04F7B3
:201990000EC3EE6480948440E6903A98C007120090D00702191475431075442775820112D3
:2019B0000AAC754310754427758202120AAC754310754427758203120AAC754310754427E6
:2019D000758200120AAC754310754427758201120AAC754310754427758202120AAC7543AF
:2019F00010754427758203120AAC756100E56175F008A4247BFD742B35F0FE756200E5627C
:201A10002DFAE43EFB7563008A828B83E493F88563F005F0E88002C313D5F0FB20E003023F
:201A30001ABA7407C39563F87F0188088F09750A01856282C007C006C005C003C002C0006C
:201A5000120221D000D002D003D005D006D0078F017C0019B9FF011CE94C6027EF14F50993
:201A70008808750A00856282C007C006C005C003C002C000120221D000D002D003D005D0F8
:201A900006D007901388C007C006C005C003C002C000120090D000D002D003D005D006D005
:201AB000070FBF08005003021A3A056374F825634003021A18056274F825624003021A0EF6
:201AD000754998754A3A758207120E81056174FD256140030219FD2275431075442775828F
:201AF00000120AAC754310754427758201120AAC754310754427758202120AAC7543107500
:201B10004427758203120AAC754310754427758200120AAC754310754427758201120AACB9
:201B3000754310754427758202120AAC754310754427758203120AAC754310754427758223
:201B500000120AAC754310754427758201120AAC754310754427758202120AAC754510759D
:201B70004627758200120BB7754510754627758201120BB7754510754627758202120BB72C
:201B9000754510754627758203120BB7754510754627758200120BB77545107546277582A1
:201BB00001120BB7754510754627758202120BB7754510754627758203120BB77F00740753
:201BD000C39FF53B8F39753A008F3C753D07753E01753F01758200C0071208F9900BB812C9
:201BF0000090D0070FBF080040D49075301200907547B875480B758200120D06907530120E
:201C100000907547B875480B758201120D069075301200907547B875480B758202120D069A
:201C30009075301200907547B875480B758203120D069075301200907547B875480B758258
:201C500000120D069075301200907547B875480B758201120D069075301200907547B8755F
:201C7000480B758202120D069075301200907547B875480B758203120D067F077539007508
:201C90003A008F3B753C07753D07753E01753F008F82C0071208F9900BB8120090D007DFC1
:201CB000DB227F05754B10754C278F82C007120ED790EA6012009090EA60120090D0070F2E
:201CD000BF080040DF227F00753900753A008F3B753C07753D07753E01753F018F82C00794
:201CF0001208F9D007EF6020EF14FE753900753A008E3B753C07753D07753E01753F008EED
:201D100082C0071208F9D007902710C007120090D0070FC3EF6480948840AD754510754646
:201D300027758203120BB7754510754627758200120BB7754510754627758201120BB77F30
:201D5000007406C39FFE8E267527008E288E29752A07752B018E82C00712031DD00775261A
:201D7000077527008F28752907752A07752B008F82C00712031D902710120090D0070FC3F2
:201D9000EF6480948740BA7F00EF2466F8760E0FC3EF6480948840F1756400758200120102
:201DB0003A7E00EE2466F9870575F01CED84E5F0902B4793FBC4035407FAEB0303543FFB6C
:201DD00074075BF56E7F00ED24F2F582EF34FFF58375081C8F09C006C0021229EDAD82D047
:201DF00002D0068D04EC902B4793FFC4035407FDEF0303543FFF530707856E268E278D2860
:201E10008F298E2A752B018A82C00612031DD0060EBE0800408D756500E564F56F3395E0F7
:201E3000F570856571757200C3E571956FE57264808570F063F08095F0E433F573E56F245F
:201E5000B9F56FE57034FFF570C3E56F9571E57064808572F063F08095F0E433FE55736096
:201E700009E5652466F9E7FE04F7056574F8256550A79013881200900564C3E5646480948B
:201E9000D55003021DAB75640075820012013A756500E5652466F9877375F01CE57384E540
:201EB000F0902B4793FEC4035407FAEE0303543FFE74075EF56EAB737E00EB24F2F582EEB0
:201ED00034FFF58375081C8E09C0021229EDAB82D0028B04EC902B4793FEC4035407FDEE13
:201EF0000303543FFE74075EFF856E268565278D288F2985652A752B018A8212031D05656F
:201F100074F82565508C756500E564F5713395E0F57285656F757000C3E56F9571E5706433
:201F3000808572F063F08095F0E433F573E57124B9FBE57234FFFEC3EB956FEE6480857024
:201F5000F063F08095F0E433FB55736009E5652466F9E7FE14F7056574F8256550AB90132B
:201F7000881200900564C3E564648094D55003021E9975640075820012013A75F01CE56670
:201F900084E5F0902B4793FBC4035407FAEB0303543FFB74075BF56EAB667E00EB24F2F5EF
:201FB00082EE34FFF58375081C8E09C0021229EDAB82D0028B04EC902B4793FEC4035407AD
:201FD000FDEE0303543FFE74075EFF856E39753A008D3B8F3C753D07753E00753F018A82FC
:201FF000C007C005C0021208F9D002D005D007856E39753A018D3B8F3C753D06753E0075A3
:202010003F018A821208F9E56604F5669013881200900564C3E5646480949D5003021F8557
:202030007F00758200C00712013A75F01CE56684E5F0902B4793FEC4035407FAEE030354EA
:202050003FFE74075EF56EAD667E00ED24F2F582EE34FFF58375081C8E09C0021229EDAD8C
:2020700082D0028D04EC902B4793FEC4035407F53BEE0303543FFE74075EF53C856E39756A
:202090003A00753D07753E01753F018A821208F9E56614F566901388120090D0070FC3EF96
:2020B0006480949050030220327F008F267527007528007529008F2A752B008F82C0071213
:2020D000031D901388120090D0070FC3EF6480948840D87F018F2675270775280775290732
:2020F0008F2A752B008F82C00712031D901388120090D0070FC3EF6480948740D87F0175FC
:202110008200C00712013AD0077407C39FFE752F077530078E318E328E337534007535017C
:20213000758207C0071204C3902710120090D0070FC3EF6480948840C67F01758200C007AC
:2021500012013AD0077407C39FFE752F007530008E318E328E33753400753501758200C0DC
:20217000071204C3902710120090D0070FC3EF6480948740C67F01758200C00712013AD00E
:2021900007752F007530008F318F328F33753400753501758200C0071204C39027101200D8
:2021B00090D0070FC3EF6480948840CB7F01758200C00712013AD0077407C39FFE752F00FB
:2021D0007530008F318E328E33753400753501758207C0071204C3902710120090D0070FC8
:2021F000C3EF6480948740C67F017407C39FF531752F007530008F328F3375340175350174
:20221000758207C0071204C3902710120090D0070FC3EF6480948840D17F01758200C007C0
:2022300012013AD0077407C39FF531752F077530078F328F33753401753501758200C0077A
:202250001204C3902710120090D0070FC3EF6480948740C7227F01758200C00712013A756C
:202270002F067530067531017532077533077534017535017582001204C3D0077406C39F92
:20229000FEEF04FD7407C39FFC752F068E308D317532078C337534017535018F82C007C0E7
:2022B00006C005C0041204C3D004D005D006D007752F067530068D31753207753307753437
:2022D000017535018F82C007C006C005C0041204C3D004D005D006752F068E30753101753F
:2022F00032078C33753401753501758200C006C005C0041204C3D004D005D0068E2F753081
:20231000067531018C32753307753401753501758200C006C005C0041204C3D004D005D0A6
:2023300006D0078E2F8E308D318C328C337534017535018F82C007C006C005C0041204C3A5
:20235000D004D005D006D0078E2F7530068D318C327533077534017535018F82C006C00593
:20237000C0041204C3D004D005D0068E2F8E307531018C328C33753401753501758200C086
:20239000051204C3907530120090D0058D07BF070050030222677F00EF2475F9EF75F00611
:2023B000A4F70FBF040040F075740075820012013A7E00EE2475F9870575F018ED84E5F0F6
:2023D000902B6393FCC4540FFB53040FEB04FAEC04FF8C2F7530008A318F327533017534B2
:2023F000017535018B82C007C006C004C003C0021204C3D002D003D004D006D0078C2F750F
:2024100030068A318F327533077534017535018B82C0061204C3D0060EBE040040957F0050
:20243000EF2475F9E7FE04F70FBF040040F2902710120090057474DD257440030223BB75C3
:20245000740075820012013A7E00EE2475F9870275F018EA84E5F0902B6393FAC4540FFBA0
:20247000740F5AFCEB04FAEC04FF8C2F7530008A318F327533017534017535018B82C007ED
:20249000C006C004C003C0021204C3D002D003D004D006D0078C2F7530068A318F32753394
:2024B000077534017535018B82C0061204C3D0060EBE040040947F00EF2475F9E7FE14F79A
:2024D0000FBF040040F2902710120090057474DD2574400302245275740075820012013A34
:2024F0007E00EE2475F9870275F018EA84E5F0902B6393FAC4540FFB740F5AFCEB04FAEC0A
:2025100004FF752F008C308A317532018F337534017535018B82C007C006C004C003C002EB
:202530001204C3D002D003D004D006D007752F068C308A317532078F337534017535018B1B
:2025500082C0061204C3D0060EBE040040947F00EF2475F9E7FE04F70FBF040040F2902735
:2025700010120090057474DD257440030224EA7F00758200C00712013AD0077E00EE24757D
:20259000F9870275F018EA84E5F0902B6393FDC4540FFB740F5DFCEB04FDEC04FA752F00C3
:2025B0008C308D317532018A337534017535018B82C007C006C005C004C003C0021204C356
:2025D000D002D003D004D005752F068C308D317532078A337534017535018B821204C3D003
:2025F00006D0070EBE040040947E00EE2475F9E7FD14F70EBE040040F2902710C0071200BB
:2026100090D0070FBF240050030225817F06758200C00712013A752F067530067531017555
:2026300032077533077534017535017582001204C3D0077406C39FFEEF04FD7407C39FFC03
:20265000752F068E308D317532078C337534017535018F82C007C006C005C0041204C3D0B2
:2026700004D005D006D007752F067530068D317532077533077534017535018F82C007C067
:2026900006C005C0041204C3D004D005D006752F068E307531017532078C33753401753573
:2026B00001758200C006C005C0041204C3D004D005D0068E2F7530067531018C32753307EF
:2026D000753401753501758200C006C005C0041204C3D004D005D006D0078E2F8E308D31E7
:2026F0008C328C337534017535018F82C007C006C005C0041204C3D004D005D006D0078E14
:202710002F7530068D318C327533077534017535018F82C007C006C0041204C3D004D0066A
:202730008E2F8E307531018C328C337534017535017582001204C3907530120090D007DF38
:20275000012202261E227F007E00EE902B9393FDC4540FFC602A740F5DFC04FB7526008B67
:20277000277528007529078B2A752B01758200C007C006C00412031DD004D006D00780020D
:202790008D047526008C277528007529078C2A752B01758200C007C00612031D120FF39057
:2027B0002710120090D006D0070EBE0D00409B0FBF050040937F017E00EE902B6393FDC4CB
:2027D000540FFC53050FEC04F53CED04F53D8C398D3A753B00753E01753F01758200C0077C
:2027F000C0061208F9120FF3902710120090D006D007EF2EFEBE180040BF0FBF080040B709
:202810007F017E00EE902B6393FDC4540FF508740F5DF509750A01758200C007C0061202F4
:2028300021120FF3902710120090D006D007EF2EFEBE180040CE0FBF080040C622120070BE
:2028500075820012013A1210A21211561212501212501214091214091219A6121AE8121C8E
:20287000B2121CD612226575820012013A122756121CD6121409121AE81214091219A612CD
:202890001CB2121CD612226580B6C021C0E0C0F0C082C083C007C006C005C004C003C00236
:2028B000C001C000C0D075D0007590007F008FF005F07401800225E0D5F0FBF5A0900003D6
:2028D000C007120090D007E57975F008A42401FD740035F0FEEF2DF582E43EF583E0F580FE
:2028F000900003C007120090D0070FBF080040BE8579F005F07401800225E0D5F0FBF590FD
:2029100074F92579400405798003757900758CC0758A00D0D0D000D001D002D003D004D01F
:1029300005D006D007D083D082D0F0D0E0D02132AD
:202A5F005151514A4A4A4444181C18181818183C3C666630180C06F63C6660386060663C22
:202A7F0030383C3E367E30303C3C181818183C3C66FFFFFF7E3C18186666666666667E3C86
:202A9F0081FF8100FF81817E00FF898900F82727F8008F8989F900FF8181FF00FF09090994
:202ABF0001000101FF0101000020406080A0C0E0E4E8ECF0F4F8FCDCBC9C7C5C3C1C181453
:202ADF00100C080425456585A5C5C9CDD1D5D9B99979593935312D294A6A8AAAAEB2B6962F
:202AFF007656524E6F8F93736F8F93734A6A8AAAAEB2B6967656524E25456585A5C5C9CDEF
:202B1F00D1D5D9B99979593935312D290020406080A0C0E0E4E8ECF0F4F8FCDCBC9C7C5CE2
:202B3F003C1C1814100C08040020406080A0C0E0E4E8ECF0F4F8FCDCBC9C7C5C3C1C18142A
:202B5F00100C0804000102030405061626364656666564636261605040302010FF89F59356
:202B7F0093F589FF0E1F3F7E7E3F1F0E183C7EFF18181818000102230506070605230201B8
:012B9F000035
:06004000E478FFF6D8FD94
:20001E007900E94400601B7A00902BA0784175A000E493F2A308B8000205A0D9F4DAF2757D
:02003E00A0FF21
:1B29400020F71130F6138883A88220F509F6A8837583002280FEF280F5F02296
:20295B00E508450960467A01E50825E0F508E509334012F509E5829508E583950940030A49
:20297B0080E6C3E50913F509E50813F508C3E5829508F5F0E58395094005F58385F082C3EE
:0D299B00E50913F509E50813F508DAE12256
:200046007800E84400600A790175A000E4F309D8FC7840E84400600C7901900001E4F0A377
:04006600D8FCD9FAEF
:2029A8007A10E4FBFCE58225E0F582E58333F583EB33FBEC33FCEB9508F5F0EC9509400643
:0929C800FCABF0438201DADD22D0
:0D001100758179122A5BE582600302000E02
:1C29D10020F71430F6148883A88220F507E6A88375830022E280F7E49322E02215
:2029ED00C2D5E58330E70DD2D5E4C39582F582E49583F583E50930E70BE4C39508F508E422
:162A0D009509F50912295B30D50BE4C39582F582E49583F58322A6
:202A2300C2D5E58330E70DD2D5E4C39582F582E49583F583E50930E70DB2D5E4C39508F54E
:182A430008E49509F5091229A830D50BE4C39582F582E49583F5832235
:042A5B00758200225E
:00000001FF
